:020000040800F2
:10000000B824002079020008A7250008B31E0008C4
:10001000A5250008771A00089133000800000000A9
:10002000000000000000000000000000852700081C
:10003000991C0008000000002D2600084129000836
:10004000930200089302000893020008930200083C
:10005000930200089302000893020008930200082C
:10006000930200089302000893020008930200081C
:10007000930200089302000893020008930200080C
:1000800093020008930200089302000893020008FC
:1000900093020008930200089302000893020008EC
:1000A00093020008930200089302000893020008DC
:1000B0001D2A0008192C0008852C0008930200084E
:1000C00093020008930200089302000893020008BC
:1000D0009302000893020008D5300008930200083C
:1000E000930200089302000893020008930200089C
:1000F000930200089302000893020008930200088C
:10010000930200089302000893020008930200087B
:10011000930200089302000893020008930200086B
:10012000930200089302000893020008930200085B
:1001300000F002F800F090F80AA090E8000C824469
:100140008344AAF10107DA4501D100F085F8AFF246
:10015000090EBAE80F0013F0010F18BFFB1A43F0A5
:100160000103184788410000A8410000103A24BF4D
:1001700078C878C1FAD8520724BF30C830C144BF0C
:1001800004680C607047000000230024002500264E
:10019000103A28BF78C1FBD8520728BF30C148BFEA
:1001A0000B6070476E2900F05C83702900F0B58405
:1001B000662904F01D80652904F01A80672904F07F
:1001C00017806129AFF3008003681B0A28BF41F044
:1001D0008001692900F0C480642900F0C18075297C
:1001E00000F0BE806F2900F04384782900F08184FC
:1001F000E92900F0DD83E42900F0DA83F52900F035
:10020000D783EF2900F04084F82900F08084036848
:10021000DB0928BF41F08001632900F05E83732968
:1002200000F06383E32900F01187F32900F01687BB
:10023000002070471FB500F063FF0400002000217C
:1002400003F0C0FF401C60600020002103F0A4FF09
:10025000E0601FBD10B510BD00F024FF1146FFF790
:10026000E9FF03F057FC00F0FDFF03B4FFF7F2FFD6
:1002700003BC03F04CFC00000948804709480047D4
:10028000FEE7FEE7FEE7FEE7FEE7FEE7FEE7FEE746
:10029000FEE7FEE704480549054A064B70470000A3
:1002A0004529000831010008B81E0020B8240020AC
:1002B000B8200020B8200020704700001CB50C4674
:1002C000064B7B4469460090204600F0E4FA044661
:1002D0000020694600F0F2FA20461CBDF705000038
:1002E0000FB41CB5084B06AA7B44694600900598DC
:1002F00000F0D1FA04460020694600F0DFFA2046FB
:100300001CBC5DF814FB0000D105000070B50C4664
:100310000546012A05D02878800600D5EA69002321
:1003200002E0012305E05B1C934202D2E05C00285E
:10033000F9D1A869E618C01AA861286A1844286289
:10034000284600F0FCF904E0D5E9012114F8010B7E
:100350009047B442F8D3284600F007FA70BD000079
:100360002DE9F0410646002410687529314616A58E
:1003700010D000F00BFA002802DA404213A507E083
:1003800031688A0701D512A502E0490704D511A5F5
:10039000012401E000F003FA00210A2206F12407FB
:1003A00009E0B0FBF2FCB0FBF2F302FB1C003030C2
:1003B00078541846491C0028F3D123462A46304673
:1003C000BDE8F04100F0F4B9000000002D0000008D
:1003D0002B000000200000002DE9F05F8946044654
:1003E0004FF0000ADFF874B1FB44C0F820A02046AB
:1003F000E1688847002874D0252806D0D4E9012177
:100400009047206A401C2062F1E700265F462046A4
:10041000E16888472028054607DB312D05D2781989
:1004200010F8200C08B10643F1E7B00701D526F01B
:100430000406C4F81CA00027C4F818A02A2D09D06F
:10044000284603F05DFB38B304EB8708303DC8F85D
:10045000185019E059F8041B204604EB87029161FB
:10046000E1688847012F054618D1E069002820DAA5
:1004700026F020061DE0D8F8180000EB800005EB00
:1004800040003038C8F818002046E1688847054623
:1004900003F036FB0028EED1012F0AD02E2D08D113
:1004A0002046E16888477F1C0546022F46F020065B
:1004B000C4DBA069002803DA404246F00106A061CF
:1004C000F00701D026F010066C2D0BD0682D09D056
:1004D0004C2D39D06A2D35D0742D35D07A2D33D0AE
:1004E00016E038E0E1682F4620468847B8420546C6
:1004F00009D16C2F26D04FF48060E1680643204676
:100500008847054604E06C2F1AD04FF480700643EC
:100510000DB3A5F14100192802D8203546F4006634
:100520004A462946204626604E46FFF73BFE80B1EC
:1005300001280BD0F61D26F0070000F1080956E748
:100540004020E4E78020D8E70020D6E706F1040940
:100550004DE7284652E7206ABDE8F09F083E0000BC
:1005600030B505460B462A4613F8014B12F8010B2D
:1005700008B1A042F8D01CB1002802D06D1CF1E7F0
:10058000284630BD40EA010310B59B070FD1042A6D
:100590000DD310C808C9121F9C42F8D020BA19BA4E
:1005A000884201D9012010BD4FF0FF3010BD1AB1B3
:1005B000D30703D0521C07E0002010BD10F8013B08
:1005C00011F8014B1B1B07D110F8013B11F8014B2F
:1005D0001B1B01D1921EF1D1184610BD10B5431C52
:1005E00002E010F8011B71B18107FAD14FF001321E
:1005F00002C88C1A8C4314EAC211F9D0C01A0A0638
:1006000003D0C01E10BDC01A10BD0A0401D0801E48
:1006100010BD0902FCD0401E10BD032A40F23080FC
:1006200010F0030C00F0158011F8013BBCF1020F33
:10063000624498BF11F801CB00F8013B38BF11F8B4
:10064000013BA2F1040298BF00F801CB38BF00F8CB
:10065000013B11F0030300F06B82083AC0F0088000
:1006600051F8043B083A51F804CBA0E80810F5E72C
:10067000121D5CBF51F8043B40F8043BAFF300800F
:10068000D20724BF11F8013B11F801CB48BF11F884
:10069000012B24BF00F8013B00F801CB48BF00F854
:1006A000012B70474FF000020429C0F0128010F0B7
:1006B000030C00F01B80CCF1040CBCF1020F18BF3E
:1006C00000F8012BA8BF20F8022BA1EB0C0100F0D1
:1006D0000DB85FEAC17C24BF00F8012B00F8012BA4
:1006E00048BF00F8012B70474FF0000200B51346D9
:1006F00094469646203922BFA0E80C50A0E80C5042
:10070000B1F12001BFF4F7AF090728BFA0E80C50F2
:1007100048BF0CC05DF804EB890028BF40F8042BEB
:1007200008BF704748BF20F8022B11F0804F18BF58
:1007300000F8012B7047704770477047704770B5DD
:10074000044685690068C10601D5302600E02026F0
:10075000C00707D070BDD4E9012130469047206A18
:10076000401C20626D1EF6D570BD70B504468569CB
:100770000078C00707D170BDD4E90121202090473F
:10078000206A401C20626D1EF6D570BD09684A05BE
:1007900001D540B27047C905FCD500B27047096861
:1007A0004A0501D5C0B27047C905FCD580B2704773
:1007B0002DE9F0470D4699469246044600F124087B
:1007C0000168880604D5E06921F01001216000E08D
:1007D0000120A84201DD471B00E00027A1697A192A
:1007E00002EB0900081AA0612078C00602D4204656
:1007F000FFF7A5FF002608E0D4E901211AF806005A
:100800009047206A401C761C20624E45F4DB20781D
:10081000C0060AD52046FFF792FF06E0D4E9012181
:1008200030209047206A401C2062381EA7F1010743
:10083000F4DC07E0D4E9012118F805009047206AAC
:10084000401C2062281EA5F10105F3DC2046FFF7BD
:100850008CFF2078000602D50220BDE8F087012039
:10086000FBE711680268006A530501D508700AE0C9
:10087000D30501D5088006E0130603D5C217C1E9E8
:10088000000200E0086001207047000001694A1C76
:1008900002610878704700B58FB0CDE901310021C1
:1008A000059105497944CDE9031011466846FFF7E3
:1008B00093FD0FB000BD0000E5FFFFFF0A6802F8DE
:1008C000010B0A60704710B5436913B1AFF30080A4
:1008D00001E0FFF71BFD012010BD127800F124019B
:1008E0000A7000224A700122EDE711684FF0FF32D2
:1008F000E9E700002DE9FF5F15468A460446DFF868
:10090000AC80F8440027D8E900103E46CDE900103D
:1009100010E03AF816106A4602A800F0A3FB411C4A
:1009200007D02178890603D5E269391891420DD89C
:100930000744761C2078800602D5E069B84205DDC0
:10094000AE42E6DB3AF816000028E2D1A069C01BEF
:10095000A0612046FFF7F3FED8E90010CDE90010B2
:10096000002017E03AF818106A4602A800F07AFB57
:10097000B0F1FF3F81460BD000250DF1080B05E0DB
:10098000D4E901211BF8050090476D1C4D45F7D3B4
:1009900008F10100B0428046E4DB206A384420625E
:1009A0002046FFF7E2FEBDE8FF9F0000023900008D
:1009B0002DE9F0418046D21D22F007020025D2E940
:1009C0000002F52915A614D0011E72F1000106DA05
:1009D0000023D0EB030063EB020211A608E0D8F875
:1009E00000108B0701D50FA602E0490701D50EA61E
:1009F00001251146002408F1240704E000F0CAF89C
:100A000030323A55641C50EA0102F7D12B46324687
:100A100021464046BDE8F041FFF7CABE0000000095
:100A20002D0000002B0000002000000030B4002149
:100A300000F1240408E002F00705D208303542EA4C
:100A40004372DB086554491C52EA0305F3D104687C
:100A5000002310A2250708D504F020040C4304D07D
:100A6000C46901230CA2641EC46130BCFFF7A0BEA0
:100A700010B5044621461068FFF791FE0246204655
:100A8000BDE810400023D1E7D21D22F00701D1E9D3
:100A90000023CBE70000000030000000F0B40D465A
:100AA0000188090502D5214C7C4402E01F4C7C449E
:100AB0000E34002100F1240608E002F00F071209AD
:100AC000E75D42EA03721B097754491C52EA0307A7
:100AD000F3D102780023120704D5702D06D009B196
:100AE000022311342246F0BCFFF762BE012310340A
:100AF000F8E770B504460D4621461068FFF74FFE33
:100B0000024629462046BDE870400023C6E7D21DB4
:100B100022F00703D3E90023C0E70368126843F01B
:100B2000200303600823C3610023B7E76437000094
:100B300010B5203AC0F00B80B1E81850203AA0E878
:100B40001850B1E81850A0E81850BFF4F5AF5FEAAC
:100B5000027C24BFB1E81850A0E8185044BF18C95F
:100B600018C0BDE810405FEA827C24BF51F8043B06
:100B700040F8043B08BF7047D20728BF31F8023B5A
:100B800048BF11F8012B28BF20F8023B48BF00F8EE
:100B9000012B704730B5B0F10A024FEA900E71F1A7
:100BA00000034EEA817EB0EB0E0061EB91014FEA4B
:100BB000101E4EEA017E10EB0E0041EB11114FEAC0
:100BC000102E4EEA016E10EB0E0041EB11214FEAA0
:100BD000104E4EEA014E10EB0E0041EB1141401851
:100BE00041F100014FEAD00040EA41704FEAD101E3
:100BF00010EB80054FEA810444EA907444EB010451
:100C00006D1944EB0404521BA3414FF0000348BF8D
:100C10000A3200D530BD401C41F1000130BD7047A3
:100C20002DE9FF4F0C461E464FF0FF378BB0D2E93F
:100C30000001DDF860800A908A46C1F30A5505B9C3
:100C40003D46002108464FF00000BAF1000F00F4C5
:100C5000400005DA00EB80004FF4400101EA50004B
:100C60004FEA9059B9F1010F00DDB9460A9850EAF0
:100C70004A000ED044F61050A5F2FF3545432F141C
:100C8000B8F1000F1ED07542291E1EDDC9F1000209
:100C90001CE0B8F1010F4FF0000001D0302103E05B
:100CA000F24305E02154401CB042FBDB30460022F9
:100CB000002121540B99C1F80880C1E900200FB030
:100CC000BDE8F08FBD1B6D1CDEE74A4600DA6942C5
:100CD00006A800F059FA06AB93E8070003AB83E8D7
:100CE000070050460A9900F00BFB8DE80700A0F5BD
:100CF00000501F3800900398002D09DD42F21F01BB
:100D00004A46084403A90390684600F06AFD08E0DB
:100D1000A0F500504A461F3803A90390684600F02A
:100D200074FD8DE807000004000C03D04FF0FF3085
:100D3000410800E01046B8F1000F03D000220092F5
:100D400015461EE0751E05D4FFF724FF30326255AC
:100D50006D1EF9D5B3460122084302D000227F1C44
:100D600004E02078302801D100227F1E002A099754
:100D700086D01DE0112D07DAFFF70CFF30326255E7
:100D80006D1C50EA0102F5D1084302D00098C8B1A9
:100D90000EE00021681E05E0235C625C635422546F
:100DA000401E491C8142F7DBAB46A81B401E099040
:100DB000002004F80B000B98099AC0F80880C0E9DD
:100DC000002B7CE711264FF0000859E72DE9F04F82
:100DD00088460446D21D22F0070191B0D1E90001F6
:100DE000CDE90A0102F078FE02460B98C00F01D04F
:100DF0002D2007E02068810701D52B2002E020216B
:100E000001EAC000032A099001D0072A05DB034646
:100E10004146204600F078F90BE12078800601D5A4
:100E2000E06900E00620B8F1650F814606D0B8F110
:100E3000660F18D0B8F1670F70D131E00020B9F11A
:100E4000110F009001DB112301E009F101030AAA4F
:100E500001A90CA8FFF7E4FEDDE90C70002609F1FA
:100E60000105834647E001204B4600904FF00047C4
:100E70000AAA01A90CA8FFF7D3FEDDE90DB00C9971
:100E80005D46002610B909F101000D18B9EB050007
:100E900003D4C0F1FF3609F10105A5EB09002BE0F1
:100EA000B9F1010F01DA4FF001090020B9F1110F7A
:100EB0000090484601DD112300E003460AAA01A97B
:100EC0000CA8FFF7ADFEDDE90C704D460026834609
:100ED000207800070AD4AB4500DA5D4601A8012D51
:100EE00004DD411911F8011C302907D04F4502DA01
:100EF00017F1040F04DA012082460FE06D1EEEE7C1
:100F0000002F02DCED1B3E4403E0781CA84200DD0C
:100F10007D1CB81B00F1010A4FF000472078000744
:100F200003D4AA4501DB4FF0FF3A0021B7F1004F8F
:100F30000DF143088DF8431024D002202B23002FFD
:100F400001DA7F422D230A21021EA0F1010000DCFC
:100F50005FB197FBF1FC97FBF1F201FB1C7C17469C
:100F60000CF1300C08F801CDEEE7A8F10100037098
:100F70002188090501D5452100E06521A0F101087E
:100F800000F8011C09980FA9A1EB0807FF1D00B18B
:100F90000120411901EBEA70A1693844081A401E8A
:100FA000A0612078C00602D42046FFF7C8FB09984C
:100FB00028B1D4E901219047206A401C20622078A2
:100FC000C00622D52046FFF7BAFB1EE0002E04DB48
:100FD000B34502DD01A8805D00E03020D4E90121A5
:100FE0009047206A401C2062761CAAF101005FEA4B
:100FF000000A0AD100F084F8C0680168405CD4E9B6
:1010000001219047206A401C2062281EA5F101059D
:10101000DCDC07E0D4E9012118F8010B9047206AD5
:10102000401C2062381EA7F10107F3DC2046FFF7C1
:101030009CFB032011B043E610B5436913B1AFF335
:10104000008001E0FFF756FC012010BD128800F17E
:10105000240182840022C2840122EDE711684FF04E
:10106000FF32E9E770B516460C46054600F040F839
:10107000036893F80101012806D0FF2C0FD8185DF2
:1010800068B101202C7070BDD3F8070132462146AB
:1010900003F2071303442846BDE8704018474FF099
:1010A000FF3070BD754600F0E7F8AE4605006946B2
:1010B000534620F00700854618B020B5FFF7EAF840
:1010C000BDE820404FF000064FF000074FF0000849
:1010D0004FF0000B21F00701AC46ACE8C009ACE8CA
:1010E000C009ACE8C009ACE8C0098D4670470000F3
:1010F00010B500F005F8001D10BD00BFC93000009C
:1011000000487047781E00202DE9F0411F46044634
:1011100003260168072A01F4006004DB08B116A564
:1011200005E016A503E008B115A500E015A521F01E
:1011300010002060A069C01EA0610FB1401EA06118
:101140002046FFF7FCFA4FB1D4E901213846904719
:10115000206A401C2062C01C206206E0206AFAE778
:10116000D4E9012115F8010B9047761EF8D22046EC
:10117000FFF7FBFABDE8F0814E414E006E616E0054
:10118000494E4600696E66002DE9F04781461646D5
:101190008AB0334878440DC88DE80D003048784453
:1011A000801C03AC0DC884E80D0041F69B30084458
:1011B000372190FBF1F290FBF1F5A5F1800501FBE1
:1011C00012041B3C02D56442012000E00020DFF83D
:1011D00090A080460027FA44AAF1BE0A0DE0E0077D
:1011E00009D03246684607EB47010AEB810100F05F
:1011F0000CFB8DE8070064107F1C002CEFD1184F0A
:101200007F44AC3F18E0E80714D007EB04100DF161
:10121000180A90E80E008AE80E00C068F04201D17A
:1012200098190890324606A903A800F0EEFA03AB1D
:1012300083E807006D10641C002DE4D13246694636
:10124000B8F1000F03A802D000F0CBFA01E000F0E3
:10125000DCFAC9E90001C9F808200AB0BDE8F08746
:101260001C31000010B50446AFF300802046BDE8F5
:101270001040FEF7FABF000000487047581E0020DB
:101280004FF0013C50F8042B51F8043B9A4221D115
:10129000A2EB0C03934313EACC1317D150F8042BA1
:1012A00051F8043B9A4215D1A2EB0C03934313EA85
:1012B000CC130BD150F8042B51F8043B9A4209D1BE
:1012C000A2EB0C03934313EACC13DBD04FF00000E6
:1012D000704700BFD01A01BAB1FA81F101F01801CC
:1012E00022FA01F0CB40C1F12001DBB2C0B2C01A3A
:1012F0002CFA01F3D11A914311EAC311E6D17047D8
:101300005FEA400C08BF91F0000F4FEA8C234FEAD0
:10131000C12243EA51514FEA1C5018BF00F5F0407A
:101320004FEA300018BF41F000415FEA6C5C00F00A
:101330002980BCF1FF3F08BF40F080407047130C8C
:1013400006BF12044FF0100C4FF0000C130E04BF38
:1013500012020CF1080C130F04BF12010CF1040C63
:10136000930F04BF92000CF1020CD30F04BF520084
:101370000CF1010C11464FF00002A0F11F00A0EB90
:101380000C00704711F0004F08BF704731F000416A
:101390003FF4D5AF0B0C06BF09044FF0100C4FF013
:1013A000000C0B0E04BF09020CF1080C0B0F04BF5C
:1013B00009010CF1040C8B0F04BF89000CF1020C25
:1013C000CB0F04BF49000CF1010CCCF12003A0EBC2
:1013D0000C0022FA03F302FA0CF241EA030100F1D5
:1013E0000100704720F07F4C80EA030023F07F4724
:1013F000ACEB070303F57C5300F0004003F1FF035F
:101400002DE980494FEA154B09B44FEA144325EA08
:101410000B4E24EA03480FF2042606EB1327490873
:101420003E785FEA320203FB0667C7F5000707FB59
:1014300006F64FEA54374FEAD64606F1020607FB96
:10144000066CCCF1005C4FEA1C472CEA074C07FB0A
:1014500006F40CFB06F504EB15464FEA961634BF6E
:1014600000204FF000404FEAD13706FB07FC4FEA5F
:101470001C4C0CFB0BF7D21B03FB0CF761EB0701B9
:101480000CFB0EF7B0EB074072EB17420CFB08F7B2
:1014900034BFA2EB0742B2EB074261EB17414FEAC0
:1014A0000C444FEA910706FB07FC4FEA1C4C0CFB6F
:1014B0000BF7B0EBC74072EB573203FB0CF734BFAE
:1014C000A2EBC742B2EBC74261EB57310CFB0EF700
:1014D000B0EBC70072EB57720CFB08F734BFA2EBFE
:1014E000C702B2EBC70261EB5771039F4FEA8161FC
:1014F00041EA921104EBCC044FEAD1374FEA826201
:1015000006FB07FC42EA90124FEA80604FEA1C4C4F
:101510000CFB0BF7D21B03FB0CF761EB07010CFB79
:101520000EF7B0EB074072EB17420CFB08F734BF25
:10153000A2EB0742B2EB074261EB17414FEA8C5531
:101540004FEA910704EB9C2406FB07FC4FEA1C4C76
:101550000CFB0BF7B0EBC74072EB573203FB0CF7F9
:1015600034BFA2EBC742B2EBC74261EB57310CFB71
:101570000EF7B0EBC70072EB57720CFB08F734BFE5
:10158000A2EBC702B2EBC70261EB577115EB4C251A
:101590004FEA816141EA92114FEA82624FEAD13704
:1015A00042EA901206FB07FC44F100044FEA806017
:1015B0004FEA1C4C0CFB0BF7D21B03FB0CF761EB47
:1015C00007010CFB0EF7B0EB074072EB17420CFB68
:1015D00008F734BFA2EB0742B2EB074261EB1741B9
:1015E00015EB1C154FEA813141EA92414FEA8232F4
:1015F00042EA90424FEA80304FEA0C7644F1000410
:1016000048EA03434EEA0B484FF0000EB2EB080CD9
:1016100071EB030724BF624639464EEB0E0E4FF0C6
:10162000000B0018524149414BEB0B0BB2EB080C7D
:1016300071EB03077BF1000B24BF624639464EEB8A
:101640000E0E4FF0000B0018524149414BEB0B0BB3
:10165000B2EB080C71EB03077BF1000B24BF624671
:1016600039464EEB0E0E51EA020718BF46F001064E
:1016700016EB0E7655F1000254F1000103D5BDE8DA
:101680008901BDE80088BDE88901BDE80048B619B8
:10169000524141EB0101A3F10103704780807F7E3D
:1016A0007D7C7B7A797877767675747372717170D8
:1016B0006F6E6E6D6C6C6B6A6A696868676666658A
:1016C0006464636362616160605F5F5E5E5D5D5C18
:1016D0005C5B5B5A5A595958585757565655555589
:1016E0005454535352525251515050504F4F4F4EE9
:1016F0004E4D4D4D4C4C4C4B4B4B4A4A4A49494937
:101700004848484747474746464645454544444478
:10171000444343434342424242414141002B26D489
:10172000770021D01CB54FEA370703B44FF0100003
:101730004FF010014FF000000FBCBDE810400BF15E
:10174000010BBBF1010F08BF5FEA170722BF12F1BF
:10175000010211F101014FF0004143F1000300F0DB
:10176000004043EA00007047F9D35708DAE746EA39
:10177000064613F1400F4FEA16461FDD13F1200F06
:10178000DFBF16430A46002120335B42C8D0C3F1B5
:10179000200746EA064602FA07F74FEA164646EAE7
:1017A0000706C3F1200722FA03F201FA07F721FA2C
:1017B00003F14FF0000342EA0702B1E746EA0206EE
:1017C00046EA06464FEA164646EA0106BCBF46EA26
:1017D0000646360C4FF000034FF000024FF00001B8
:1017E0009EE72DE9C048934630B491E8380007C819
:1017F00031EA400C48BF34EA430C03D5FFF7F2FD51
:10180000FFF78CFFF0BCBDE800882DE9C048934687
:1018100030B491E8380007C810F0804F08BF13F0CB
:10182000804F03D100F005F8FFF778FFF0BCBDE86A
:10183000008820F07F4780EA030023F07F4C07EB0D
:101840000C03A3F57C5300F00040A3F1FE0392F0DB
:10185000000F00F0B38095F0000F00F077802DE9C5
:1018600001494FEA11404FEA144621EA004800FBC3
:1018700006FC24EA064708FB06F607FB08F800FB0F
:1018800007F718EB06484CEB164C4FEA124B18EBD7
:1018900007484FEA15464CEB174022EA0B4E0BFB6C
:1018A00006FC25EA06470EFB06F607FB0EFE0BFBC1
:1018B00007F71EEB064E4CEB164C4FF000061EEBE6
:1018C000074E4CEB174B18EB0B0840F1000018EBE0
:1018D0000E0B58EB000840F100008F1A4FF000018A
:1018E0003CBFC943661B14BFB5EB040C00213CBFD1
:1018F000C943F61B4FEA17444EEA8E0E27EA044509
:101900004FEA1C4704FB07622CEA074C05FB07F76C
:101910000CFB05F604FB0CFC16EB074642EB1742EA
:1019200016EB0C4642EB1C421BEB060658EB020280
:10193000414146EA9E0601D5BDE80189B6195241EA
:1019400041EB0101A3F10103BDE801894FEA144510
:101950004FEA114724EA054621EA074C05FB07F444
:1019600006FB07F70CFB06F105FB0CFC11EB07412E
:1019700044EB17444FEA124711EB0C4144EB1C4473
:1019800022EA074C05FB07F206FB07F70CFB06F6FD
:1019900005FB0CFC16EB074642EB174216EB0C4618
:1019A00042EB1C456A1854F1000148BF7047B61954
:1019B000524141EB0101A3F10103704795F0000F83
:1019C00037D04FEA11424FEA144721EA024624EA8F
:1019D000074C02FB07F106FB07F70CFB06F402FBC2
:1019E0000CFC14EB074441EB17414FEA154714EB8D
:1019F0000C4441EB1C4125EA074C02FB07F506FBB2
:101A000007F70CFB06F602FB0CFC16EB074645EB52
:101A1000174516EB0C4645EB1C42121951F100011B
:101A200048BF7047B619524141EB0101A3F10103D0
:101A300070474FEA14454FEA114724EA054621EA68
:101A4000074C05FB07F106FB07F70CFB06F24FF00E
:101A5000000605FB0CFC12EB074241EB174112EBB1
:101A60000C4251EB1C4148BF7047921841EB0101F9
:101A7000A3F101037047704770B505460C46224636
:101A8000294615480068801CFEF7C7FD2046E1176F
:101A900004EB1161090A104A12681170E11704EB96
:101AA00011610912A4EB01210B4A12685170002147
:101AB00009480268A01C11540748006800F5967098
:101AC000054908600846006804490968884202D14F
:101AD00003480149086070BD400000204800002014
:101AE0005015002010B500241848006820F07060E0
:101AF000164908600846006840F00060086004E08D
:101B0000601CC4B2012000F0EFF840210F4800F043
:101B1000BEF9012801D1462CF2DB462C01DB012065
:101B200010BD002404E0601CC4B2012000F0DCF809
:101B30004021064800F0ABF908B9462CF3DB462CEF
:101B400001DB0220ECE70020EAE70000000801408A
:101B500008B50121042000F08BFD4020ADF8000005
:101B600003208DF8020010208DF803006946044818
:101B700000F002F900F070F8FFF7B4FF08BD0000B4
:101B80000008014010B5002404E0601CC4B201202C
:101B900000F0AAF84021104800F079F9012801D19D
:101BA000282CF2DB002404E0601CC4B2012000F009
:101BB0009BF84021084800F06AF908B93C2CF3DB97
:101BC000232000F091F84021034800F060F908B1AB
:101BD000012010BD0020FCE70008014070B5002482
:101BE000002506E06006040EFFF7CCFF0443681CE6
:101BF000C5B2082DF6DB204670BD7CB505460E4605
:101C000000F02AF8FFF76EFF08BB002405E0FFF79D
:101C1000E5FF0DF80400601CC4B2052CF7DB9DF84D
:101C200000009DF8011008449DF8021008449DF83A
:101C3000031008449DF80410884206D19DF8000066
:101C400030709DF80200287003E001207CBD022066
:101C5000FCE70020FAE7000010B50E48006820F00D
:101C600070600C4908600846006840F040700860E9
:101C700000224021074800F017F91E2000F00EF85E
:101C800001224021034800F00FF91E2000F02CF83B
:101C900010BD000000080140704700000146114AD5
:101CA00012884A434FF0E0235A6100229A611A4693
:101CB000126942F001021A6100BF4FF0E022106980
:101CC00000F001021AB100F48032002AF5D04FF082
:101CD000E022126922F001024FF0E0231A61002293
:101CE0009A6170471A0000200146114A12784A434F
:101CF0004FF0E0235A6100229A611A46126942F0BD
:101D000001021A6100BF4FF0E022106900F00102E9
:101D10001AB100F48032002AF5D04FF0E0221269A7
:101D200022F001024FF0E0231A6100229A6170470D
:101D30001800002010B56FF0040000F0EDFD0A4817
:101D400000680A49B0FBF1F00949087008460078BC
:101D500000EB4001C1EBC0104FF6FF7101EAC0007B
:101D60000449088010BD00006C00002000127A00B9
:101D7000180000201A0000202DE9F041024600253D
:101D80000026002000230024002791F803C00CF057
:101D90000F0591F803C00CF0100CBCF1000F03D03C
:101DA00091F802C04CEA050591F800C0BCF1000FA3
:101DB00031D0146800202BE04FF0010C0CFA00F336
:101DC000B1F800C00CEA03069E4220D183004FF018
:101DD0000F0C0CFA03F7BC4305FA03FC4CEA0404AD
:101DE00091F803C0BCF1280F06D14FF0010C0CFA9A
:101DF00000FCC2F814C00AE091F803C0BCF1480F1F
:101E000005D14FF0010C0CFA00FCC2F810C0401CC8
:101E10000828D1D31460B1F800C0BCF1FF0F34DD45
:101E2000546800202EE000F1080C4FF0010808FA79
:101E30000CF3B1F800C00CEA03069E4221D18300E6
:101E40004FF00F0C0CFA03F7BC4305FA03FC4CEA05
:101E5000040491F803C0BCF1280F05D100F1080C6F
:101E600008FA0CF8C2F8148091F803C0BCF1480FCE
:101E700007D100F1080C4FF0010808FA0CF8C2F87D
:101E80001080401C0828CED35460BDE8F081024683
:101E9000002093680B400BB1012000E00020704748
:101EA00041617047016170470AB1016100E0416121
:101EB0007047704710B580212448FEF7F3FB24A239
:101EC00026A12248FEF70CFA2048FEF787FB24499A
:101ED000086080212348FEF7E5FB23A21FA12148CB
:101EE000FEF7FEF91F48FEF779FB214908608021C3
:101EF0002048FEF7D7FB20A218A11E48FEF7F0F9F4
:101F00001C48FEF76BFB1E49086080211D48FEF748
:101F1000C9FB1DA211A11B48FEF7E2F941F2727044
:101F20001D4908600846174902681CA002F0B8F86D
:101F300006491FA002F0B4F80A4921A002F0B0F847
:101F40000C4923A002F0ACF810BD00002C1B0020AF
:101F5000363635393733323632000000257300000B
:101F60004C000020AC1B00203339363738340000D9
:101F7000500000202C1C0020313233343536000054
:101F800054000020AC1C00203138332E3233302E68
:101F900034302E333900000058000020B7FE20CE28
:101FA000F120C6F7A3BA25733A25640D0A00000094
:101FB000BFCDBBA7B6CB4944A3BA25730D0A000019
:101FC000D3C320BBA720C3FBA3BA25730D0A00000F
:101FD000C3DC20202020C2EBA3BA25730D0A000029
:101FE00008B50121202000F043FB0420ADF80000DB
:101FF00003208DF8020010208DF803006946044884
:10200000FFF7BAFE04210248FFF74CFF08BD0000AD
:102010000014014010B504210148FFF743FF10BD33
:102020000014014010B504210148FFF739FF10BD2D
:102030000014014010B516481649086008460068AB
:102040001549086015481649086016481649086081
:102050000846006815490860154816490860164882
:102060001649086008460068154908601548164971
:10207000086000F037F8002114A000F047FA0020B3
:1020800015490870154908701549087010BD000001
:1020900098090020280000202C000020480E002075
:1020A00030000020740F0020340000203800002091
:1020B000241400203C000020501500204000002087
:1020C00044000020001A002048000020746F70694E
:1020D000635F6F6E650000006B0000206A000020E7
:1020E0006800002070B501207A4908600A207A490A
:1020F00008607A480068001D794909680844801C16
:102100007849096808447849086073480068096894
:10211000441810207549087000BF2046E11704EBF1
:102120005161C911A4EBC115E11704EB5161CC1148
:10213000002C01DD45F080056C48664A1268855424
:1021400064480068401C63490860002CE5DC0021FD
:10215000664A60480068115404215E480068401CCB
:1021600011544D215B480068801C1154512159487D
:102170000068C01C1154542156480068001D1154B9
:1021800054480068401D1154042152480068801DC5
:102190001154C2214F480068C01D115400214D4800
:1021A00000680830115464214A480068093011540D
:1021B0004A490868C11700EB1161C1F307224B4B74
:1021C000444909680A315A5444490868C11700EB68
:1021D00011610912A0EB0121CAB23E4909680B3115
:1021E0005A541A463B4909680C3150183B490A6851
:1021F0003F49FEF712FA3A490868C11700EB11612E
:10220000C1F30722334909680C31344B1B68194468
:10221000364B5A5432490868C11700EB1161091254
:10222000A0EB0121CAB22B4909680D312B4B1B6869
:1022300019442E4B5A54274909680E31274A12680F
:1022400011441A46881826490A682A49FEF7E5F912
:1022500024490868C11700EB1161C1F307221D4929
:1022600009680E311D4B1B6819441D4B1B6819442E
:102270001E4B5A541B490868C11700EB1161091223
:10228000A0EB0121CAB2134909680F31134B1B6837
:102290001944134B1B681944144B5A540D490968CF
:1022A00010310E4A126811440D4A126811441A4640
:1022B00088180C490A681049FEF7AFF9054800680C
:1022C000054A12681044084A12688118074800F04D
:1022D000CFFE70BD5C000020600000204C0000209C
:1022E0005000002054000020640000202C1D00201D
:1022F0002C1B0020AC1B00202C1C00202DE9F04FD3
:10230000D1B0804698F8011098F8000001EB002049
:10231000509008F102070020814605460646834694
:1023200001244FF0010A00BF0BF1010B00BF281977
:1023300017F8009009F07F0000FB0A664FEACA1AFE
:10234000641C09F080000028F1D1301905443119CE
:102350005098401A50900124A24600265098002818
:10236000E2D1594620A001F09BFE0020054606461A
:1023700000BF00BF4C9030E000BF281917F8009054
:1023800009F07F0000FB0A664FEACA1A641C09F0D4
:1023900080000028F1D1601C2844395C6019385C49
:1023A00001EB0020801C4F904F98301A4E90291955
:1023B0004F9808444D904D98391801A84E9AFEF751
:1023C0002CF901A84E99FFF757FB30190544012459
:1023D000A24600264C98401C4C904C985845CBDBAC
:1023E00051B0BDE8F08F0000B1BEB4CEBDD3CAD5A8
:1023F000C1CB2564B8F6CDC6CBCDCAFDBEDD0D0A76
:102400000000000010B5C02004490870002048708A
:102410000221024800F02CFE10BD00002C1D0020FF
:102420002DE9F047054688461646012033490860E5
:102430002846FEF7D3F8801C314908603148066011
:10244000084600682F490968441830202E49087052
:1024500000BF2046E11704EB5161C911A4EBC1177D
:10246000E11704EB5161CC11002C01DD47F080072E
:102470002548224A1268875420480068401C1F499A
:102480000860002CE5DC2846FEF7A8F8C0F3072119
:102490001D4A1A48006811542846FEF79FF8C1B239
:1024A000194A16480068401C11542846FEF796F851
:1024B0008146154A11490968891C50184A4629461F
:1024C000FEF7ABF82846FEF789F80C490968891C25
:1024D00008440D4900EB0109324641464846FEF7E3
:1024E0009CF806480068064A12681044054A1268BB
:1024F0008118054800F0BCFDBDE8F0875C000020B5
:1025000060000020640000202C1D002070B50446EF
:102510000D4602201F4908601F4908602046FEF74B
:102520005DF8C01C1D49086082201D4908701A48CA
:1025300000781A49097808441949487000208870C1
:102540000120C8702046FEF749F8000A14490871B6
:102550002046FEF743F8124948712046FEF73EF840
:102560000646324621460E48801DFEF756F82046A4
:10257000FEF734F8801D0A490D5406480068064AE3
:1025800012681044054A12688118054800F070FD71
:1025900070BD00005C00002060000020640000208E
:1025A0002C1D00207047704770B5002100230F22BA
:1025B000C47804B3154C246804F4E064C4F5E06402
:1025C000210AC1F10403CA40447804FA03F1847873
:1025D0001440214309010E4C0678A155047804F0FB
:1025E0001F050124AC4005786D11AD0005F1E02513
:1025F000C5F8004109E0047804F01F050124AC404F
:10260000044D0678761145F8264070BD0CED00E0CB
:1026100000E400E080E100E002490143024A116069
:10262000704700000000FA050CED00E07047000064
:1026300029B1064AD2690243044BDA6104E0034A35
:10264000D2698243014BDA617047000000100240FA
:1026500029B1064A12690243044B1A6104E0034A95
:1026600012698243014B1A6170470000001002405A
:1026700029B1064A92690243044B9A6104E0034A75
:1026800092698243014B9A6170470000001002403A
:1026900029B1064AD2680243044BDA6004E0034AD7
:1026A000D2688243014BDA6070470000001002409C
:1026B00030B500210022002400232D4D6D6805F067
:1026C0000C0121B1042905D0082923D105E0294DA9
:1026D000056022E0274D05601FE0254D6D6805F47B
:1026E0007012234D6D6805F48034022505EB92428B
:1026F0001CB9214D554305600BE01D4D6D6805F477
:1027000000351DB11C4D5543056002E0194D554380
:10271000056002E0174D056000BF00BF144D6D68F5
:1027200005F0F0010909154D6B5C0568DD40456059
:102730000F4D6D6805F4E061090A104D6B5C45684A
:10274000DD4085600A4D6D6805F46051C90A0B4D86
:102750006B5C4568DD40C560054D6D6805F4404122
:10276000890B074D6B5CC568B5FBF3F5056130BDA2
:102770000010024000127A0000093D008000002095
:10278000900000207047000010B5AAB034211CA8AA
:10279000FDF7AAFF642103A8FDF7A6FF00202990FA
:1027A000174818A102681CA8FDF79AFD03208DF8B0
:1027B000A40000208DF8A5001CA8FDF70FFFC0B2F3
:1027C0008DF8A6001CA99DF8A600CDE900019DF892
:1027D000A5309DF8A42010A103A8FDF781FD1CA839
:1027E000FDF7FCFEC41C0DF10F010EA001F058FC1A
:1027F000224603A90DA0FFF713FE2AB010BD00006A
:10280000100000207B226C6564466C6167223A22CE
:102810002573227D00000000256325632563257351
:102820000000000025730D0A000000002464700001
:1028300010B500F001F810BD0CB50020019000901B
:102840003348006840F480303149086000BF3048A8
:10285000006800F4003000900198401C019000983E
:1028600018B90198B0F5A06FF1D12948006800F4BB
:10287000003010B10120009001E00020009000988D
:10288000012843D12348006840F010002149086026
:102890000846006820F0030008600846006840F021
:1028A000020008601A4840681949486008464068B4
:1028B00048600846406840F48060486008464068C8
:1028C00020F47C1048600846406840F4E8104860F6
:1028D0000846006840F08070086000BF0C4800683F
:1028E00000F000700028F9D00948406820F003008B
:1028F000074948600846406840F00200486000BF51
:102900000348406800F00C000828F9D10CBD000015
:102910000010024000200240042808D14FF0E021BE
:10292000096941F004014FF0E022116107E04FF026
:10293000E021096921F004014FF0E02211617047A4
:102940007047000010B51348006840F001001149BD
:10295000086008464068104908400E49486008462B
:1029600000680E4908400B4908600846006820F4DA
:10297000802008600846406820F4FE0048604FF45C
:102980001F008860FFF754FF4FF0006004490860A3
:1029900010BD0000001002400000FFF8FFFFF6FE2F
:1029A00008ED00E01FB54FF4A060FFF735FE0121F0
:1029B0000846FFF73DFE4FF0804000F0F7F944F67F
:1029C0001F60ADF8080048F69F40ADF804000020F5
:1029D000ADF80600ADF80A0001A94FF0804000F004
:1029E000F5FA0121880700F0D1F90122114690077C
:1029F00000F0E1FA0121880700F0CBF91C208DF8E6
:102A0000000002208DF8010001208DF802008DF8F1
:102A100003006846FFF7C8FD1FBD00002DE9F04127
:102A2000ACB000240121880700F0B4FA002854D08B
:102A30002BA92AA8FFF7E1F834211CA8FDF754FEC2
:102A4000642103A8FDF750FE002029909DF8AC00FA
:102A50000A2190FBF1F201FB120590FBF1F69DF8C3
:102A6000A80090FBF1F201FB120790FBF1F83B4646
:102A700042461BA11CA8CDE90065FDF731FC0320EF
:102A80008DF8A40000208DF8A5001CA8FDF7A6FD78
:102A9000C0B28DF8A6001CA99DF8A600CDE90001E2
:102AA0009DF8A5309DF8A42018A103A8FDF718FCF7
:102AB00019A001F0F5FA0DF10F0118A001F0F0FADC
:102AC0001CA8FDF78BFDC41C224603A915A0FFF727
:102AD000A7FC0121880700F059F92CB0BDE8F0816E
:102AE0007B2274656D7065726174757265223A221D
:102AF00025642564222C2268756D696469747922C5
:102B00003A2225642564227D0000000025632563A8
:102B100025632573000000000D0A000025730D0ACF
:102B200000000000246470001FB54FF4A060FFF7A0
:102B300073FD01210220FFF77BFD184800F036F9F4
:102B400044F61F60ADF8080041F61F40ADF80400E0
:102B50000020ADF80600ADF80A0001A90F4800F00A
:102B600035FA01210D4800F011F9012211460B48F8
:102B700000F021FA0121094800F00BF91D208DF821
:102B8000000001208DF8010000208DF802000120D6
:102B90008DF803006846FFF707FD1FBD00040040E5
:102BA0001FB54FF4A060FFF737FD01210220FFF7AA
:102BB0003FFD184800F0FAF84EF65F20ADF8080027
:102BC00048F69F40ADF804000020ADF80600ADF8CF
:102BD0000A0001A90F4800F0F9F901210D4800F0A1
:102BE000D5F8012211460B4800F0E5F9012109480A
:102BF00000F0CFF81D208DF8000002208DF80100B4
:102C000001208DF802008DF803006846FFF7CCFC28
:102C10001FBD00000004004010B50121164800F05F
:102C2000B9F938B315480078062819D2DFE800F062
:102C300003060B0C0D10FFF7E5FB11E0FFF774FF27
:102C4000FFF7E0FB0CE000BF00BFFFF7DBFB07E096
:102C500000200B4908700021074800F09AF800BFD7
:102C600000BF06480078401C044908700121024852
:102C700000F08CF810BD0000000400406800002047
:102C80006900002010B501211D4800F083F90028DB
:102C900034D01C481C4902681C480068801CFDF7A1
:102CA000BCFC18480088000A1849096808701548D3
:102CB00000781649096848701448006800F5967055
:102CC000124908600846006811490968884202D123
:102CD00010480E49086000200A49086000210E488B
:102CE00000F072F90021064800F053F80021044872
:102CF00000F06AF90121024800F048F810BD000018
:102D0000000800402000002098010020280000203A
:102D10003000002098090020000400407FB50546DF
:102D20000C464FF4A060FFF777FC01210420FFF769
:102D30007FFCADF80850ADF804400020ADF8060067
:102D4000ADF80A0001A9104800F040F901210E4831
:102D500000F01CF8012211460B4800F02CF900216C
:102D6000094800F016F81E208DF8000001208DF8AB
:102D7000010000208DF8020001208DF80300684654
:102D8000FFF712FC7FBD000000080040CA4302822A
:102D9000704721B1028842F00102028004E00288FB
:102DA0004FF6FE731A4002807047000010B50446CB
:102DB0006848844208D10121C014FFF769FC002152
:102DC000E014FFF765FCC4E0B4F1804F08D10121A5
:102DD0000846FFF73DFC00210120FFF739FCB8E071
:102DE0005D48844208D101210220FFF731FC002117
:102DF0000220FFF72DFCACE05848844208D10121A5
:102E00000420FFF725FC00210420FFF721FCA0E0AF
:102E10005348844208D101210820FFF719FC002102
:102E20000820FFF715FC94E04E48844208D10121A8
:102E30001020FFF70DFC00211020FFF709FC88E0AF
:102E40004948844208D101212020FFF701FC0021DC
:102E50002020FFF7FDFB7CE04448844208D101219B
:102E60004014FFF715FC00216014FFF711FC70E01F
:102E70003F48844209D10121C804FFF709FC002121
:102E80004FF40020FFF704FC63E03A48844209D184
:102E900001210805FFF7FCFB00214FF48010FFF72C
:102EA000F7FB56E03448844209D101214805FFF779
:102EB000EFFB00214FF40010FFF7EAFB49E02F4839
:102EC000844208D101214020FFF7C2FB00214020AD
:102ED000FFF7BEFB3DE02A48844208D10121802053
:102EE000FFF7B6FB00218020FFF7B2FB31E0254859
:102EF000844208D101218015FFF7AAFB0021A0150B
:102F0000FFF7A6FB25E02048844209D101210804EF
:102F1000FFF7BEFB00214FF48030FFF7B9FB18E04C
:102F20001A48844209D101214804FFF7B1FB00216E
:102F30004FF40030FFF7ACFB0BE01548844208D19A
:102F400001218804FFF7A4FB00214FF48020FFF744
:102F50009FFB10BD002C0140000400400008004011
:102F6000000C0040001000400014004000340140FC
:102F7000004C014000500140005401400018004046
:102F8000001C00400020004000400140004401407F
:102F90000048014030B50246002000230024158A75
:102FA00005EA0103958905EA010413B10CB101207A
:102FB00000E0002030BD1AB183890B43838102E019
:102FC00083898B4383817047818470470022028804
:102FD0001D4B98420ED01D4B98420BD0B0F1804F44
:102FE00008D01B4B984205D01A4B984202D01A4B7E
:102FF000984204D14FF68F731A404B881A43174BEF
:10300000984207D0164B984204D04FF6FF431A401F
:10301000CB881A4302808B8883850B8803850A4BF3
:1030200098420BD0094B984208D00E4B984205D0DD
:103030000D4B984202D00D4B984201D10B7A03867A
:103040000123838270470000002C014000340140BE
:103050000004004000080040000C00400010004048
:10306000001400400040014000440140004801407D
:1030700070B505460C462246294613480068801C58
:10308000FDF7CBFA2046E11704EB1161090A0E4A5D
:1030900012681170E11704EB11610912A4EB012110
:1030A000094A126851700848006800F59670064990
:1030B00008600846006805490968884202D104484A
:1030C0000149086070BD0000340000203C00002071
:1030D000740F002010B540F22551184800F09CF8FC
:1030E00058B31748007880B91448001D008820B3F1
:1030F0001248001D00881349134A12688854124868
:103100000068401C1049086017E00C48001D00884A
:103110000C490D4A126888540B48006820B90121F7
:103120000A48FFF736FE03E000210848FFF74CFF8E
:1031300005480068401C0449086010BD0044004078
:1031400069000020980100202000002000080040B5
:1031500001F40072B2F5007F00D100BFCA430280C3
:10316000704721B1828942F40052828104E0828951
:103170004DF6FF731A4082817047000010B5044677
:103180002048844209D101218803FFF781FA0021F8
:103190004FF48040FFF77CFA32E01B48844209D1AB
:1031A00001214804FFF754FA00214FF40030FFF7E3
:1031B0004FFA25E01548844209D101218804FFF720
:1031C00047FA00214FF48020FFF742FA18E0104838
:1031D000844209D10121C804FFF73AFA00214FF4D3
:1031E0000020FFF735FA0BE00A48844208D101219C
:1031F0000805FFF72DFA00214FF48010FFF728FA99
:1032000010BD00000038014000440040004800406C
:10321000004C00400050004070B5024600240023DE
:103220000025002040F66A16B14200D100BFC1F36C
:10323000421501F01F03012606FA03F3012D02D106
:103240009689334006E0022D02D1168A334001E010
:10325000968A33400C12012606FA04F4168834408C
:1032600013B10CB1012000E0002070BDF0B50346A1
:10327000002400260025002040F66A17B94200D13C
:1032800000BF1846C1F3421401F01F06012707FAD8
:1032900006F5012C01D10C3004E0022C01D11030D4
:1032A00000E014301AB107682F43076002E0076896
:1032B000AF430760F0BD00002DE9F04786B005463A
:1032C0000E460024A24600BFA1460027B08900B1E7
:1032D00000BF2F462C8A4CF6FF700440F088044350
:1032E0002C82AC894EF6F3100440B0883189084333
:1032F000718908430443AC81AC8A4FF6FF40044017
:10330000B0890443AC8201A8FFF7D2F91F48874275
:1033100002D1DDF810A001E0DDF80CA0A88900F4CE
:10332000004040B10AEBCA0000EB0A1031684900C6
:10333000B0FBF1F807E00AEBCA0000EB0A103168B5
:103340008900B0FBF1F86420B8FBF0F0040120091B
:10335000642101FB1089A88900F4004040B13220AB
:1033600000EBC900B0FBF1F000F00700044308E0F7
:10337000322000EB09106421B0FBF1F000F00F00E7
:1033800004432C8106B0BDE8F087000000380140FE
:103390007047000010B586B0044601218803FFF78E
:1033A00067F901210420FFF763F94FF40070ADF8CD
:1033B000140003208DF8160018208DF8170005A9B9
:1033C0001248FEF7D9FC4FF48060ADF814000420D9
:1033D0008DF8170005A90D48FEF7CEFC01940020DA
:1033E000ADF80800ADF80A00ADF80C00ADF810001B
:1033F0000820ADF80E0001A90548FFF75DFF012187
:103400000348FFF7AEFE06B010BD00000008014003
:103410000038014010B586B004464FF4A060FFF7B5
:10342000FBF801214804FFF703F901210420FFF70D
:103430001FF92448FFF7A2FE0420ADF81400032072
:103440008DF8160018208DF8170005A91E48FEF704
:1034500093FC0820ADF8140004208DF8170005A98E
:103460001948FEF789FC01940020ADF80800ADF87A
:103470000A00ADF80C00ADF810000C20ADF80E00FD
:1034800001A91048FFF718FF20210E48FFF760FE42
:10349000012240F225510B48FFF7E8FE26208DF867
:1034A000000000208DF801008DF8020001208DF849
:1034B00003006846FFF778F801210248FFF751FE44
:1034C00006B010BD004400400008014010B539A00E
:1034D00000F0E6FD322000F073FA20B139A000F0D0
:1034E000DFFD012010BD3DA000F0DAFD3EA000F0A0
:1034F000D7FD322141A000F0B5FA20B142A000F082
:10350000CFFD0220EEE747A000F0CAFD4A48007850
:1035100000281ED149A000F0C3FD32214CA000F0CC
:10352000A1FA20B14EA000F0BBFD0320DAE754A0C1
:1035300000F0B6FD57A000F0B3FD1E2000F0E8F942
:1035400020B159A000F0ACFD0420CBE75DA000F055
:10355000A7FD61A000F0A4FD322163A000F082FA73
:1035600020B165A000F09CFD0820BBE769A000F039
:1035700097FD6CA000F094FD32216FA000F072FA6C
:1035800020B170A000F08CFD0920ABE775A000F021
:1035900087FD79A000F084FD642000F00FF920B1D0
:1035A0007AA000F07DFD0A209CE77FA000F078FD66
:1035B000002097E7D7BCB1B8B8B4CEBBC4A3BFE96D
:1035C0000D0A0000B8B4CEBBCAA7B0DCA3ACD7BC10
:1035D000B1B8D6D8C6F40D0A00000000B8B4CEBB0E
:1035E000B3C9B9A60D0A0000D7BCB1B8C9E8D6C3A3
:1035F000535441C4A3CABD0D0A00000041542B43DB
:10360000574D4F44453D3100C9E8D6C3535441C4DA
:10361000A3CABDCAA7B0DCA3ACD7BCB1B8D6D8C6C4
:10362000F40D0A00C9E8D6C3535441C4A3CABDB3BC
:10363000C9B9A60D0A00000024000020D7BCB1B80B
:10364000C8A1CFFBD7D4B6AFC1ACBDD30D0A000023
:1036500041542B43574155544F434F4E4E3D30003C
:10366000C8A1CFFBD7D4B6AFC1ACBDD3CAA7B0DC1D
:10367000A3ACD7BCB1B8D6D8C6F40D0A0000000080
:10368000C8A1CFFBD7D4B6AFC1ACBDD3B3C9B9A61F
:103690000D0A0000D7BCB1B8C1ACBDD3C2B7D3C905
:1036A000C6F70D0A00000000C1ACBDD3C2B7D3C934
:1036B000C6F7CAA7B0DCA3ACD7BCB1B8D6D8C6F49D
:1036C0000D0A0000C1ACBDD3C2B7D3C9C6F7B3C998
:1036D000B9A60D0A00000000D7BCB1B8C9E8D6C32E
:1036E000CDB8B4AB0D0A000041542B4349504D4FA7
:1036F00044453D3100000000C9E8D6C3CDB8B4ABA5
:10370000CAA7B0DCA3ACD7BCB1B8D6D8C6F40D0AF2
:1037100000000000C9E8D6C3CDB8B4ABB3C9B9A6A0
:103720000D0A0000D7BCB1B8B9D8B1D5B6E0C2B760
:10373000C1ACBDD30D0A000041542B4349504D5537
:10374000583D3000B9D8B1D5B6E0C2B7C1ACBDD391
:10375000CAA7B0DCA3ACD7BCB1B8D6D8C6F40D0AA2
:1037600000000000B9D8B1D5B6E0C2B7C1ACBDD336
:10377000B3C9B9A60D0A0000D7BCB1B8C1ACBDD35E
:10378000B7FECEF1C6F70D0A00000000C1ACBDD3F4
:10379000B7FECEF1C6F7CAA7B0DCA3ACD7BCB1B8B0
:1037A000D6D8C6F40D0A0000C1ACBDD3B7FECEF129
:1037B000C6F7B3C9B9A60D0A0000000010B504464B
:1037C00000202E4908604FF480612D48FCF76AFF05
:1037D0002C482D4902682DA000F0B0FC1AE06420AE
:1037E000FEF75CFA30A12648FCF7BAFE00B115E0FE
:1037F0002FA12348FCF7B4FE08B1012010BD2EA173
:103800001F48FCF7ADFE08B10220F7E721462FA0C4
:1038100000F046FC201EA4F10104E0D100BF2CA062
:1038200000F03EFC002C01DC0320E7E729A000F0BB
:1038300037FC0020114908604FF480611048FCF704
:1038400031FF2CA000F07AFC0CE06420FEF726FA91
:103850002CA10B48FCF784FE00B107E021461BA019
:1038600000F01EFC201EA4F10104EED100BF002CCC
:1038700001DC0420C2E70020C0E700002000002097
:103880009801002058000020AC1C002041542B431C
:10389000495053544152543D22544350222C222526
:1038A00073222C25640D0A00434F4E4E45435400AD
:1038B000434C4F5345440000414C5245414459202C
:1038C000434F4E4E454354454400000025642000BC
:1038D0000D0A0000C1ACBDD3B7FECEF1C6F7B3C927
:1038E000B9A6A3ACD7BCB1B8BDF8C8EBCDB8B4ABE2
:1038F0000D0A000041542B43495053454E440D0AD4
:10390000000000000D0A4F4B0D0A0D0A3E0000009A
:1039100010B504460020144908604FF48061134834
:10392000FCF7C0FE12A216A118A000F007FC0DE0E3
:103930004FF47A70FEF7B2F91AA10C48FCF710FEAA
:1039400000B107E021461CA000F0AAFB201EA4F154
:103950000104EDD100BF19A000F0A2FB002C01DC96
:10396000012010BD0020FCE720000020980100206D
:103970006C6A6A31333538303137353430350000D0
:103980005869616F6D695F373430430041542B4390
:10399000574A41503D222573222C222573220D0ABD
:1039A000000000005749464920474F542049500D18
:1039B0000A0D0A4F4B000000256420000D0A00008C
:1039C00010B50446002210211348FEF76DFA4FF49B
:1039D000FA70FEF763F9012210210F48FEF764FA2E
:1039E0000CE06420FEF75AF90CA10E48FCF7B8FD74
:1039F00000B107E021460CA000F052FB201EA4F10C
:103A00000104EED100BF09A000F04AFB002C01DC4C
:103A1000012010BD0020FCE70008014072656164D0
:103A20007900000098010020256420000D0A0000A4
:103A300008B501210420FEF71BFE1020ADF80000A0
:103A400003208DF8020010208DF803006946044819
:103A5000FEF792F9012210210148FEF725FA08BD70
:103A60000008014070B505460C4600201349086067
:103A70004FF480611248FCF715FE294611A000F0B2
:103A80005DFB0CE06420FEF709F910A10C48FCF77F
:103A900067FD00B107E021460DA000F001FB201EEC
:103AA000A4F10104EED100BF0AA000F0F9FA002C45
:103AB00001DC012070BD0020FCE700002000002098
:103AC0009801002025730D0A000000004F4B0000F4
:103AD000256420000D0A0000490050EAC12018BFEB
:103AE00004204A0D18BF40F0010040F2FF72B2EB13
:103AF000515F08BF40F00200012808BF0520704751
:103B000030380A2801D2012070470020704700BFDA
:103B100070470000FEF70EF94FF41650FFF73AFC1D
:103B20004FF4E130FFF776FC4FF4E1514FF4FA70B7
:103B3000FFF7F4F8FEF754FAFEF70AF8FFF778FFFC
:103B4000FEF7B8F983E1C2480078012873D1C14873
:103B50000068C1490968884239D0BE480068807849
:103B600010280CD0BB4800688078822803D1BB485D
:103B70000078012803D0BA480078012827D1B54839
:103B800000688078302809D1B24800688178B5A0F3
:103B900000F086FABDA000F083FA05E0AD480068A9
:103BA0008178BBA000F07CFAAA48006800F0A6FA71
:103BB000A848006800F59670A649086008460068A5
:103BC000B7490968884202D1B648A2490860B64898
:103BD0000068B6490968884279D0B5A000F060FA5B
:103BE000B1480068807820283CD1AF48006840790F
:103BF00006282FD2DFE800F0030A11182027AFA013
:103C000000F04EFA0120954908702AE0B0A000F0BB
:103C100047FA00208E49087023E0B8A000F040FA6F
:103C200000208B4908701CE0C0A000F039FA002089
:103C30008749087015E0E4E0C6A000F031FA0020E2
:103C4000834908700DE0CEA000F02AFA00208049D8
:103C5000087006E0D2A000F023FA00207C4908702A
:103C600000BF4BE090480068807890281FD18E48B4
:103C70000068807910B1012811D100E000BFD1A007
:103C800000F00EFA0120764908700020D049087033
:103C9000FEF786FFFEF778FDFEF784FE06E0CDA076
:103CA00000F0FEF900206A49087000BF26E07E4857
:103CB00000688078D02815D1CCA000F0F1F9C44874
:103CC0000078012804D10020C149087016E024E0E2
:103CD000BF480078012811DD0020BD490870FEF7BB
:103CE0005FFF0BE0704800688078302806D1C3A0E1
:103CF00000F0D6F96C480068FEF700FB6A480068DF
:103D000000F596706849086008460068C04909686F
:103D1000884202D1BF4864490860BF480068BF4973
:103D2000096888426CD0BC480168891CBCA000F0BE
:103D3000B7F9BE480068FCF751FC04462246BB4870
:103D40000168B5480068801CFCF71CFC28B9B8A0C5
:103D5000B9490860FEF766F941E0B8480068FCF729
:103D60003DFC04462246B5480168AB480068801C0B
:103D7000FCF708FC28B9B2A0AF490860FEF74AF981
:103D80002DE0B1480068FCF729FC04462246AE4805
:103D90000168A1480068801CFCF7F4FB28B90120E9
:103DA000AA490860FEF7FEFD19E0A9480068FCF783
:103DB00015FC04462246A648016897480068801C06
:103DC000FCF7E0FB40B90020A049086000214FF05B
:103DD0008040FEF7DEFF02E09EA000F061F98E4811
:103DE000006800F596708C490860084600689C4998
:103DF0000968884202D19B4887490860FEF7C4FCE5
:103E000025E099A000F04CF900219C48FEF7C1FF85
:103E100000219B48FEF7BDFF00209A4908604FF43F
:103E200080619948FCF73EFCFFF750FB78B997A0FA
:103E300000F036F901200649087000209149086019
:103E40004FF480619048FCF72DFCFEF7F3F87AE61A
:103E50006900002038000020340000206A000020A3
:103E60006B000020B7A2CBCDCAFDBEDD3A3078256D
:103E700078A3ACB5A5C6ACBBFACAFDBEDDCDC6CB3A
:103E8000CDD6C1B7FECEF1C6F70D0A000D0A00006F
:103E9000B7A2CBCDCAFDBEDD3A307825780D0A0039
:103EA0003C000020740F00202C000020280000207F
:103EB000BDD3CAD5B5BDCAFDBEDD3A00434F4E4E97
:103EC000454354B1A8CEC4B3C9B9A60D0A00000039
:103ED000C1ACBDD3D2D1BEDCBEF8A3ACB2BBD6A7B9
:103EE000B3D6B5C4D0ADD2E9B0E6B1BEA3ACD7BCB1
:103EF000B1B8D6D8C6F40D0A00000000C1ACBDD3DD
:103F0000D2D1BEDCBEF8A3ACB2BBBACFB8F1B5C457
:103F1000BFCDBBA7B6CBB1EACAB6B7FBA3ACD7BC83
:103F2000B1B8D6D8C6F40D0A00000000C1ACBDD3AC
:103F3000D2D1BEDCBEF8A3ACB7FECEF1B6CBB2BBDD
:103F4000BFC9D3C3A3ACD7BCB1B8D6D8C6F40D0A89
:103F500000000000C1ACBDD3D2D1BEDCBEF8A3AC22
:103F6000CEDED0A7B5C4D3C3BBA7C3FBBBF2C3DCB3
:103F7000C2EBA3ACD7BCB1B8D6D8C6F40D0A0000CA
:103F8000C1ACBDD3D2D1BEDCBEF8A3ACCEB4CADACC
:103F9000C8A8A3ACD7BCB1B8D6D8C6F40D0A0000E7
:103FA000C1ACBDD3D2D1BEDCBEF8A3ACCEB4D6AAD0
:103FB000D7B4CCACA3ACD7BCB1B8D6D8C6F40D0A34
:103FC00000000000B6A9D4C4B3C9B9A60D0A000008
:103FD00068000020B6A9D4C4CAA7B0DCA3ACD7BC83
:103FE000B1B8D6D8C6F40D0A0000000050494E47BB
:103FF000B1A8CEC4BBD8B8B40D0A0000B7FECEF14C
:10400000C6F7B5C8BCB630CDC6CBCD0D0A00000092
:1040100030000020980900204400002040000020CB
:10402000C3FCC1EE3A25730D0A0000000000002019
:104030004C45444F4E0000001000002004000020BA
:104040004C45444F46460000080000201400002064
:104050000C000020CEB4D6AAD6B8C1EE0D0A0000DE
:104060004800002050150020D0E8D2AAC1ACBDD332
:10407000B7FECEF1C6F70D0A0000000000080040B0
:10408000000400402000002098010020BDA8C1A22B
:10409000544350C1ACBDD3B3C9B9A60D0A0000004A
:1040A0000FB438B505A800901248009A0499FCF79F
:1040B00005F9002000900F48FCF790FA054600BF74
:1040C0000D48008800F040000028F9D000240CE0E2
:1040D0000848005D0849091D088000BF064800889F
:1040E00000F040000028F9D0641CAC42F0D338BC8A
:1040F0005DF814FB980000200038014000BF0E4A14
:10410000128802F04002002AF9D001210CE04A1C7A
:10411000825C094B1B1D1A8000BF074A128802F0FF
:104120004002002AF9D0491C4378027803EB0222AE
:104130008A42ECDA70470000004400400FB438B502
:1041400005A800901248009A0499FCF7B7F80020DF
:1041500000900F48FCF742FA054600BF0D48008862
:1041600000F040000028F9D000240CE00848005D71
:104170000849091D088000BF0648008800F040007B
:104180000028F9D0641CAC42F0D338BC5DF814FBB5
:10419000980500200044004010B500290AD0087896
:1041A000002807D005487844FDF76AF8002801D0B8
:1041B000002010BD0248784410BD000066010000D8
:1041C0005E01000010B500290AD00878002807D049
:1041D00005487844FDF754F8002801D0002010BDB0
:1041E0000248784410BD0000560100004E01000056
:1041F000FCF7ECBD04000008000000000000000215
:10420000000100001000000000000000000000009D
:1042100030313233343536373839414243444546FC
:1042200040305800303132333435363738396162F6
:10423000636465664030780002400000000000A022
:104240000000000005400000000000C80000000061
:104250000C4000000000409C0000000019400000DD
:104260000020BCBE0000000034400000BFC91B8E0F
:1042700000000004B5400000504BCFD06607E2CFED
:10428000010000006C4100003E8251AADFEEA7341D
:1042900001000000D9420000DCB5A0E23A301F97CF
:1042A000FFFFFFFFB4450000FD25A0C8E9A3C14FF3
:1042B000FFFFFFFFFF3F0000000000800000000044
:1042C000FF3F000000000080000000004C45444F0C
:1042D000464600004448544F464600004C45444F73
:1042E0004E0000004448544F4E000000384400087F
:1042F00000000020940000006C010008CC4400087D
:104300009400002024240000880100081C00000004
:1043100043000000F8FFFFFF0C0000000E0000004B
:104320000F0000002E0000001001000043000000FC
:10433000F8FFFFFF004040404040404040404141C6
:10434000414141404040404040404040404040406A
:104350004040404040050202020202020202020204
:104360000202020202202020202020202020200201
:104370000202020202029090909090901010101091
:10438000101010101010101010101010101010102D
:1043900002020202020288888888888808080808C1
:1043A000080808080808080808080808080808088D
:1043B00002020202400000000000000000000000B5
:1043C00000000000000000000000000000000000ED
:1043D00000000000000000000000000000000000DD
:1043E00000000000000000000000000000000000CD
:1043F00000000000000000000000000000000000BD
:1044000000000000000000000000000000000000AC
:10441000000000000000000000000000000000009C
:10442000000000000000000000000000000000008C
:104430000000000000000000DC420008CC42000840
:10444000E4420008D4420008CC420008000000000A
:10445000000000000000000000000000000000005C
:10446000000000000000000000000000000000004C
:10447000000000000000000000000000000000003C
:10448000000000000000000000000000000000002C
:10449000000000000000000000000000000000001C
:1044A0000000000000A24A0400000000000000001C
:1044B00001020304060708090000000001020304CA
:0C44C000010203040607080902040608B4
:040000050800027974
:00000001FF
